:020000040800F2
:10000000600600200D020008AD030008A5030008EB
:10001000A9030008BF0200082D0500080000000029
:10002000000000000000000000000000D1030008F4
:10003000C302000800000000AF030008C10400086C
:1000400027020008270200082702000827020008EC
:1000500027020008270200082702000827020008DC
:1000600027020008270200082702000827020008CC
:1000700027020008270200082702000827020008BC
:1000800027020008270200082702000827020008AC
:10009000270200082702000827020008270200089C
:1000A000270200082702000827020008270200088C
:1000B000270200082702000827020008270200087C
:1000C000270200082702000827020008270200086C
:1000D000270200082702000827020008270200085C
:1000E000270200082702000827020008270200084C
:1000F000270200082702000827020008270200083C
:10010000270200082702000827020008270200082B
:10011000270200082702000827020008270200081B
:10012000270200082702000827020008270200080B
:1001300027020008270200082702000827020008FB
:1001400027020008270200082702000827020008EB
:1001500027020008270200082702000827020008DB
:1001600027020008270200082702000827020008CB
:1001700027020008270200082702000827020008BB
:10018000270200082702000800F002F800F02EF80D
:100190000AA090E8000C82448344AAF10107DA45E2
:1001A00001D100F023F8AFF2090EBAE80F0013F006
:1001B000010F18BFFB1A43F0010318474804000061
:1001C000580400000023002400250026103A28BF10
:1001D00078C1FBD8520728BF30C148BF0B607047B9
:1001E0001FB500F009FA1FBD10B510BD00F031F8C1
:1001F0001146FFF7F5FF00F09BF900F04FF803B44C
:10020000FFF7F2FF03BC00F053F8000009488047F5
:1002100009480047FEE7FEE7FEE7FEE7FEE7FEE7E8
:10022000FEE7FEE7FEE7FEE704480549054A064B00
:1002300070470000C5040008890100086000002024
:1002400060060020600200206002002070477047B6
:100250007047754600F028F8AE46050069465346DB
:1002600020F00700854618B020B5FFF7DDFFBDE898
:1002700020404FF000064FF000074FF000084FF00D
:10028000000B21F00701AC46ACE8C009ACE8C0099E
:10029000ACE8C009ACE8C0098D4670470446AFF32E
:1002A00000802046FFF7ABFF0048704700000020A9
:1002B00001491820ABBEFEE726000200704700BFD0
:1002C000FEE7704701B502E00098401E00900098DC
:1002D0000028F9D108BD00001CB50121084600F036
:1002E00067F80720009001208DF8040000208DF8A9
:1002F00006008DF8050001208DF8070069460248C8
:1003000000F004F81CBD000000000240F0B50A46F1
:1003100000210023002400BF3DE0012505FA01F380
:10032000156805EA03049C4234D105684F00032692
:10033000BE40B543056015794E00B54006683543AB
:1003400005601579012D02D01579022D16D1856829
:100350004F000326BE40B543856055794E00B54039
:10036000866835438560456801268E40B543456003
:10037000456896798E40B6B235434560C5684F00F2
:100380000326BE40B543C560D5794E00B540C6686A
:100390003543C560491C1029BFD3F0BD4183704768
:1003A0000183704700BFFEE700BFFEE7704770475C
:1003B00029B1064A12680243044B1A6004E0034A5A
:1003C00012688243014B1A607047000030380240C7
:1003D000704700000CB50020019000903448006880
:1003E00040F480303249086000BF3148006800F4B2
:1003F000003000900198401C0190009818B90198B5
:10040000B0F5A04FF1D12A48006800F4003010B1D7
:100410000120009001E0002000900098012846D1C2
:1004200023484030006840F0805021494031086046
:100430002048006840F440401E4908601C480830CD
:1004400000681B49083108600846006840F4004015
:1004500008600846006840F4A05008601648091F6C
:100460000860081F006840F08070091F086000BF26
:100470000F48006800F000700028F9D040F20570C5
:100480000E4908600A480830006820F00300084957
:10049000083108600846006840F00200086000BFAC
:1004A00003480830006800F00C000828F8D10CBDA3
:1004B000003802400070004008544007003C0240F1
:1004C0007047000010B51548006840F470001349EB
:1004D00008601348006840F00100114908600020DE
:1004E0000F49083108600E4800680E4908400C4961
:1004F00008600D48091D0860081F006820F480206E
:10050000091F0860002006490C310860FFF762FFF0
:100510004FF0006001498039086010BD88ED00E0AF
:1005200000380240FFFFF6FE1030002400BFFEE757
:10053000FFF7D2FE59E001212C48FFF72FFF0221DF
:100540002B48FFF72BFF04212948FFF727FF08213D
:100550002748FFF723FF04212548FFF721FF022149
:100560002348FFF71DFF04212148FFF719FF082149
:100570001F48FFF715FF10211D48FFF711FF20212D
:100580001B48FFF70DFF40211948FFF709FF8021A5
:100590001748FFF705FF1748FFF794FE042114489A
:1005A000FFF7FCFE02211248FFF7F8FE0421104875
:1005B000FFF7F4FE08210E48FFF7F0FE40F6FF704B
:1005C000FFF780FE04210A48FFF7E8FE02210848F1
:1005D000FFF7E6FE6FF07F40FFF774FE042104484A
:1005E000FFF7DCFE0348FFF76DFEA4E700000240C2
:1005F00000080240FFFF0F004FF04070E1EE100ACC
:10060000704700001406000800000020600600008B
:04061000C401000819
:040000050800018965
:00000001FF
